:020000040000FA
:040000008A110D282C
:10000800FE00030EF9000408FA000A08FB008A1132
:10001800BD2E8A110F28FD018313583084006F30DC
:100028008A1525278A11A0308400EE308A152527E5
:100038008A1183018A11542EFF3083120313CE00D4
:100048004E08D300D20141303C06031D2C282D2830
:100058003028D301D30AA42842303C06031D352892
:1000680036283828D301A42853303C06031D3D28E0
:100078003E2885280730CE004E08BB005330CE00FE
:100088004E08BC0000308A118F278A11303E831237
:100098000313CE004E08BD0001308A118F278A1144
:1000A800303E83120313CE004E08BE0002308A1180
:1000B8008F278A11303E83120313CE004E08BF00EB
:1000C80003308A118F278A11303E83120313CE0022
:1000D8004E08C00004308A118F278A11303E8312DF
:1000E8000313CE004E08C10005308A118F278A11EC
:1000F800303E83120313CE004E08C200D201D20A4A
:10010800A42857303C06031D8A288B289C280230D7
:10011800CE004E08BB005230CE004E08BC00423024
:10012800CE004E08BD000230CE004E08D200A428F2
:100138000430CE004E08D200A428A428A428A4285D
:10014800223084003930CE000408CF001530D000AA
:100158004E08840083130008D100CE0A4F0884009B
:1001680051088000CF0AD00BAC288A1156278A1173
:10017800831203135208031DC228C3282E2A5303CF
:10018800031DC728C828102A30303D06031DCD2876
:10019800CE28A72930303E06031DD328D428A72906
:1001A80030303F060319D928DA28102AA729A729A9
:1001B8005308CE004E08A00000308A115F258A112E
:1001C80083120313EB01EB0A3D08D03ECE004E0824
:1001D800A0003E08D03ECF004F08A1003F08D03E07
:1001E800D0005008A2006C308A11DF258A112E2A0F
:1001F800831203135308CE004E08A00001308A1161
:100208005F258A1183120313EA01EA0A3D08D03EEA
:10021800CE004E08A0003E08D03ECF004F08A100F7
:100228003F08D03ED0005008A200EB308A11DF25ED
:100238008A112E2A831203135308CE004E08A000F9
:1002480002308A115F258A1183120313E901E90A32
:100258003D08D03ECE004E08A0003E08D03ECF005C
:100268004F08A1003F08D03ED0005008A200E83057
:100278008A11DF258A112E2A831203135308CE0010
:100288004E08A00003308A115F258A1183120313D8
:10029800E801E80A3D08D03ECE004E08A0003E081E
:1002A800D03ECF004F08A1003F08D03ED0005008F4
:1002B800A200E5308A11DF258A112E2A8312031342
:1002C8005308CE004E08A00004308A115F258A1119
:1002D80083120313E701E70A3D08D03ECE004E081B
:1002E800A0003E08D03ECF004F08A1003F08D03EF6
:1002F800D0005008A200E2308A11DF258A112E2A88
:10030800831203135308CE004E08A00005308A114B
:100318005F258A1183120313E601E60A3D08D03EE1
:10032800CE004E08A0003E08D03ECF004F08A100E6
:100338003F08D03ED0005008A200DF308A11DF25E8
:100348008A112E2A2E2A831203133A08CE00CF01CF
:100358004F08003A0319B1292E2A4E08313A0319D9
:10036800DC28033A0319FC28013A03191E29073A25
:1003780003194029013A03196229033A0319842908
:100388002E2A2E2A102A5308CE004E08A00000302C
:100398008A115F258A1183120313EB012E2A530851
:1003A800CE004E08A00001308A115F258A11831201
:1003B8000313EA012E2A5308CE004E08A00002308B
:1003C8008A115F258A1183120313E9012E2A530823
:1003D800CE004E08A00003308A115F258A118312CF
:1003E8000313E8012E2A5308CE004E08A00004305B
:1003F8008A115F258A1183120313E7012E2A5308F5
:10040800CE004E08A00005308A115F258A1183129C
:100418000313E6012E2A2E2A3A08CE00CF014F08F0
:10042800003A0319182A2E2A4E08313A0319C72907
:10043800033A0319D329013A0319DF29073A0319A3
:10044800EB29013A0319F729033A0319032A2E2A3B
:100458002E2A2E2A0800831203136B03031D352A44
:10046800362A642A6C08A400A50159082506031D2C
:100478003F2A58082406031D422A432A642A6D0885
:10048800A400A5015B082506031D4C2A5A0824066A
:10049800031D4F2A502A642A6E08A400A5015D088E
:1004A8002506031D592A5C082406031D5C2A5D2ABB
:1004B800642AEB01A00100308A115F258A11642AA1
:1004C800831203136A03031D6A2A6B2AA52A83165B
:1004D80003136B0883120313A400A501590825060A
:1004E800031D782A58082406031D7B2A7C2AA52A7E
:1004F800831603136C0883120313A400A5015B0879
:100508002506031D892A5A082406031D8C2A8D2ACC
:10051800A52A831603136D0883120313A400A501EB
:100528005D082506031D9A2A5C082406031D9D2ADA
:100538009E2AA52AEA01A00101308A115F258A11A5
:10054800A52A831203136903031DAB2AAC2AE62AE2
:1005580083160313680883120313A400A50159081E
:100568002506031DB92A58082406031DBC2ABD2ADE
:10057800E62A83160313690883120313A400A5014E
:100588005B082506031DCA2A5A082406031DCD2A1E
:10059800CE2AE62A831603136A0883120313A400DB
:1005A800A5015D082506031DDB2A5C082406031D3A
:1005B800DE2ADF2AE62AE901A00102308A115F2536
:1005C8008A11E62A831203136803031DEC2AED2A15
:1005D800272B83160313650883120313A400A501B0
:1005E80059082506031DFA2A58082406031DFD2A62
:1005F800FE2A272B83160313660883120313A4000D
:10060800A5015B082506031D0B2B5A082406031DAC
:100618000E2B0F2B272B8316031367088312031344
:10062800A400A5015D082506031D1C2B5C082406F3
:10063800031D1F2B202B272BE801A00103308A1153
:100648005F258A11272B831203136703031D2D2BA4
:100658002E2B682B83160313620883120313A4003E
:10066800A50159082506031D3B2B58082406031D20
:100678003E2B3F2B682B8316031363088312031347
:10068800A400A5015B082506031D4C2B5A08240667
:10069800031D4F2B502B682B8316031364088312FA
:1006A8000313A400A5015D082506031D5D2B5C0846
:1006B8002406031D602B612B682BE701A001043081
:1006C8008A115F258A11682B831203136603031DA1
:1006D8006E2B6F2BA92B831603135F08831203134A
:1006E800A400A50159082506031D7C2B58082406DB
:1006F800031D7F2B802BA92B8316031360088312FD
:100708000313A400A5015B082506031D8D2B5A08B9
:100718002406031D902B912BA92B83160313610824
:1007280083120313A400A5015D082506031D9E2B53
:100738005C082406031DA12BA22BA92BE601A0010E
:1007480005308A115F258A11A92B0800F3002B2C8C
:100758007003031DB02BB12BB52B831203130514A3
:100768003F2C7008031DB92BBA2B3F2C831203139F
:1007780005103F2C3F2C3F2C3F2C7003031DC52B2D
:10078800C62BCA2B8312031385143F2C7008031D34
:10079800CE2BCF2B3F2C8312031385103F2C3F2CDD
:1007A8003F2C3F2C7003031DDA2BDB2BDF2B83122E
:1007B800031305153F2C7008031DE32BE42B3F2C76
:1007C8008312031305113F2C3F2C3F2C3F2C700341
:1007D800031DEF2BF02BF42B8312031307143F2C6C
:1007E8007008031DF82BF92B3F2C831203130710F5
:1007F8003F2C3F2C3F2C3F2C7003031D042C052C51
:10080800092C8312031387143F2C7008031D0D2C29
:100818000E2C3F2C8312031387103F2C3F2C3F2CA8
:100828003F2C7003031D192C1A2C1E2C8312031342
:1008380007153F2C7008031D222C232C3F2C8312F4
:10084800031307113F2C3F2C3F2C3F2C3F2C7308E0
:10085800F100F2017208003A0319332C3F2C710899
:1008680084000630040203183F2C08308A00031065
:10087800040D183E820008008A152D278A11F200FF
:100888007208F4003A307406031D4B2C4C2C592C7A
:100898007408F200720883160313C8000230F200CD
:1008A800720883120313E200D32C0230831203135D
:1008B8006202031C602C612CD32CB82CB82C740851
:1008C800F200720883160313C9000330F20072089D
:1008D80083120313E200D32C7408D03EF20072088E
:1008E80083160313CA000430F2007208831203133C
:1008F800E200E101D32C7408F2006108CB3E8400C9
:100908007208831380000130F2007208E107831631
:1009180003134A08831203136102031C942C952CB9
:10092800D32C0530F2007208E200D32CD32C7408C3
:10093800F200720883160313DB000630F200720817
:1009480083120313E200D32C7408F2007208831692
:100958000313DC0083120313E201E20A0130DE0014
:100968000030DF00D32CD32C6208F200F3017308A7
:10097800003A0319C02CD32C7208023A0319632CCD
:10098800013A0319702C073A03197F2C013A03190D
:100998009B2C033A0319A82CD32CD32CD32C080056
:1009A8008A152D278A11F4007408F6003E30760661
:1009B800031DDF2CE02C5E2D482D482D83120313D8
:1009C8006408013EF4007408E400851683160313D6
:1009D80085164D308A157A278A115E2D83120313E6
:1009E8006408013EF4007408E40031308A157A275F
:1009F8008A1101308A157A278A1132308A157A27A6
:100A08008A1100308A157A278A1133308A157A2795
:100A18008A1100308A157A278A1134308A157A2784
:100A28008A1100308A157A278A11FF308A157A27A9
:100A38008A115E2D83120313E40158308A157A2730
:100A48008A11F00100308A11AA238A11F0010130BD
:100A58008A11AA238A11F00102308A11AA238A1165
:100A6800F00103308A11AA238A11F00104308A1197
:100A7800AA238A11F00105308A11AA238A11831248
:100A88000313E5018B155E2D831203136408F4002C
:100A9800F5017508003A0319522D5E2D7408003AC5
:100AA8000319E22C013A0319F22C033A03191E2DFB
:100AB8005E2D5E2D080083120313A300CA2D2003A8
:100AC800031D672D682D6A2D0514DE2D2008031DD2
:100AD8006E2D6F2DDE2D0510DE2DDE2DDE2DDE2D8B
:100AE8002003031D782D792D7B2D8514DE2D2008FC
:100AF800031D7F2D802DDE2D8510DE2DDE2DDE2DB4
:100B0800DE2D2003031D892D8A2D8C2D0515DE2D44
:100B18002008031D902D912DDE2D0511DE2DDE2DD3
:100B2800DE2DDE2D2003031D9A2D9B2D9D2D0714F0
:100B3800DE2D2008031DA12DA22DDE2D0710DE2D90
:100B4800DE2DDE2DDE2D2003031DAB2DAC2DAE2DAD
:100B58008714DE2D2008031DB22DB32DDE2D87103E
:100B6800DE2DDE2DDE2DDE2D2003031DBC2DBD2D3B
:100B7800BF2D0715DE2D2008031DC32DC42DDE2D26
:100B88000711DE2DDE2DDE2DDE2DDE2D2308A10042
:100B9800A2012208003A0319D22DDE2D2108840073
:100BA800063004020318DE2D08308A000310040DF5
:100BB8000C3E8200080083120313A50022085C077C
:100BC800A3005D0803185D0AA400003024020A305F
:100BD80003192302031CF12DF22D022E5C082207B3
:100BE800F63EA3002508023E8400230883138000F4
:100BF8002108013EA3002308A1000C2E5C0822074F
:100C0800A3002508023E84002308831380000C2ECD
:100C180021085A07A3005B0803185B0AA4000030E8
:100C280024020A3003192302031C1B2E1C2E2A2E11
:100C38005A082107F63EA300250A840023088000ED
:100C48002008013EA3002308A000322E5A082107DD
:100C5800A300250A840023088000322E20085807A4
:100C6800A30059080318590AA400003024020A30C6
:100C780003192302031C412E422E4B2E580820072D
:100C8800F63EA3002508840023088000532E580848
:100C98002007A3002508840023088000532E08009D
:100CA8008A1566278A118A1541278A118A15B0275D
:100CB8008A118A154D278A118A1559278A118A158A
:100CC80036278A1158308A1594278A118A111327D2
:100CD8008A1183120313E501712E831203136B0328
:100CE8000319772E782E922E6A0303197C2E7D2EF7
:100CF800922E69030319812E822E922E68030319FE
:100D0800862E872E922E670303198B2E8C2E922EF9
:100D18006603031D902E912E962E922E8A112F2255
:100D28008A11962E831203135E035F04031D9D2E02
:100D38009E2E712EDE01DF0139308400C830D400C8
:100D48000408D5001530D600540884008313000821
:100D5800D700D40A5508840057088000D50AD60B56
:100D6800A82E8A1120208A11712E712E712E8A11B7
:100D78000D28831203138C1CC22EC32EC72E8A156E
:100D8800D5278A11C72E831203138C1ECC2ECD2E85
:100D9800EA2ED82ED82E8A1140248A11EA2E8A11DA
:100DA800D4248A11EA2EEA2E831203136508F70069
:100DB800F8017808003A0319E22EEA2E7708003A7B
:100DC8000319CF2E013A0319D32EEA2E0B1CED2E50
:100DD800EE2EFF2E8B11831203130508F7007708F8
:100DE800FC000B10E501E50A831603138512831234
:100DF80003138512FF2E831203130C1C042F052FD7
:100E08000A2F0C108A11C7278A110A2F7B088A001B
:100E18007A088400790E8300FE0E7E0E09003A30AF
:100E280083120313B9003908BD003030B9003908FE
:100E3800BE000530B9003908BF004830B90039088C
:100E4800C0004530B9003908C1004C30B900390834
:100E5800C2004C30B9003908C3004F30B900390816
:100E6800C4000D30B9003908D0000A30B90039087B
:100E7800D100223084003D30B9000408BA00153092
:100E8800BB003908840083130008BC00B90A3A087B
:100E980084003C088000BA0ABB0B452F8A115627EC
:100EA8008A1108008312031322088A1594278A11CD
:100EB8008312031323088A1594278A1183120313B4
:100EC8002408303E8A1594278A1183120313B80127
:100ED8007D2F3808033E223E8400831300088A15BC
:100EE80094278A11013083120313B7003708B80713
:100EF8007D2F24083802031C822F832F6D2F842F07
:100F080035088A1594278A118312031336088A151F
:100F180094278A11080083120313A200B02F050832
:100F28000139C62FC62F050C0139C62FC62F050C4F
:100F3800A000200C0139C62FC62F07080139C62F7B
:100F4800C62F070C0139C62FC62F070CA000200C8E
:100F58000139C62FC62FC42F2208A000A1012108DD
:100F6800003A0319B82FC42F200884000630040261
:100F78000318C42F08308A000310040D003E8200B5
:100F8800FF30C62F0800A030831203138F008A3069
:100F98008E000130DC070318DD0A0030DD070A3057
:100FA8005C065D04031DD92FDA2FFD2FDC01DD015E
:100FB8000130DA070318DB0A0030DB070A305A066B
:100FC8005B04031DE82FE92FFD2FDA01DB01013057
:100FD800D8070318D90A0030D9070A305806590427
:100FE800031DF72FF82FFD2FD801D901FD2FFD2F55
:040FF800FD2F0800C1
:101000008A11932F8A11972F8A119B2F8A11A12F52
:101010008A11A52F8A11A92F8A11632D8A11742D87
:101020008A11852D8A11962D8A11A72D8A11B82D26
:101030008A11AC2B8A11C12B8A11D62B8A11EB2B6A
:081040008A11002C8A11152C05
:101E3E00F0007008831203139500080064008001FF
:101E4E00840A0406031900340406262F8312031392
:101E5E001408F0007008F1007108352F0800831285
:101E6E0003130C10DC01DD01A0308F008A308E00D0
:101E7E001014080030308312031390049011901048
:101E8E008B170B17831603130C14080083120313FE
:101E9E0016129717161316159115673093009501A4
:101EAE0096160800831203131713831603138C164A
:101EBE000B178B1783120313940117160800831642
:101ECE00031305168516071687160730831203139C
:101EDE0099048316031391018B1516160B100F1709
:101EEE008F160F160800F1007108F0007D08A03E55
:101EFE00840070088313800027307D06031D882F11
:101F0E00892F8B2FFD01902F0130F0007008FD07F7
:101F1E00902F831603138C14080083120313A10051
:101F2E002108A0007D08A03E8400200883138000B5
:101F3E0027307D06031DA42FA52FA72FFD01AC2F43
:101F4E000130A0002008FD07AC2F831603138C145C
:101F5E00080083160313051083120313051083164E
:101F6E0003138510831203138510831603130511B3
:101F7E008312031305118316031307108312031321
:101F8E00071083160313871083120313871083160B
:101F9E000313071183120313071108007D08831220
:101FAE00031363060319DC2FDD2FF52F6308A03E04
:101FBE008400831300088A151F278A152730831281
:101FCE0003136306031DEC2FED2FEF2FE301F52F07
:101FDE000130F1007108E307F52FF52F7D08630638
:101FEE00031DFA2FFB2FFF2F831603138C10FF2FC9
:021FFE000800D9
:02400E00D4FFDD
:00000001FF
