:020000040000FA
:040000008A110D282C
:10000800FE00030EF9000408FA000A08FB008A1132
:10001800A22E8A110F28FD018313583084006F30F7
:100028008A1582278A11A0308400EE308A1582272B
:100038008A1183018A113C2EFF3083120313CE00EC
:100048004E08D300D20141303C06031D2C282D2830
:100058003028D301D30A8C2842303C06031D3528AA
:1000680036283828D3018C2853303C06031D3D28F8
:100078003E2885280730CE004E08BB005330CE00FE
:100088004E08BC0000308A1131278A11303E831295
:100098000313CE004E08BD0001308A1131278A11A2
:1000A800303E83120313CE004E08BE0002308A1180
:1000B80031278A11303E83120313CE004E08BF0049
:1000C80003308A1131278A11303E83120313CE0080
:1000D8004E08C00004308A1131278A11303E83123D
:1000E8000313CE004E08C10005308A1131278A114A
:1000F800303E83120313CE004E08C200D201D20A4A
:100108008C280430CE004E08D2008C288C288C28ED
:10011800223084003930CE000408CF001530D000DA
:100128004E08840083130008D100CE0A4F088400CB
:1001380051088000CF0AD00B94288A11F8268A111A
:10014800831203135208031DAA28AB28162A530347
:10015800031DAF28B028F82930303D06031DB52807
:10016800B6288F2930303E06031DBB28BC288F29AE
:1001780030303F060319C128C228F8298F298F2952
:100188005308CE004E08A00000308A1147258A1176
:1001980083120313EB01EB0A3D08D03ECE004E0854
:1001A800A0003E08D03ECF004F08A1003F08D03E37
:1001B800D0005008A2006C308A11C7258A11162A6F
:1001C800831203135308CE004E08A00001308A1191
:1001D80047258A1183120313EA01EA0A3D08D03E33
:1001E800CE004E08A0003E08D03ECF004F08A10028
:1001F8003F08D03ED0005008A200EB308A11C72536
:100208008A11162A831203135308CE004E08A00041
:1002180002308A1147258A1183120313E901E90A7A
:100228003D08D03ECE004E08A0003E08D03ECF008C
:100238004F08A1003F08D03ED0005008A200E83087
:100248008A11C7258A11162A831203135308CE0070
:100258004E08A00003308A1147258A118312031320
:10026800E801E80A3D08D03ECE004E08A0003E084E
:10027800D03ECF004F08A1003F08D03ED000500824
:10028800A200E5308A11C7258A11162A83120313A2
:100298005308CE004E08A00004308A1147258A1161
:1002A80083120313E701E70A3D08D03ECE004E084B
:1002B800A0003E08D03ECF004F08A1003F08D03E26
:1002C800D0005008A200E2308A11C7258A11162AE8
:1002D800831203135308CE004E08A00005308A117C
:1002E80047258A1183120313E601E60A3D08D03E2A
:1002F800CE004E08A0003E08D03ECF004F08A10017
:100308003F08D03ED0005008A200DF308A11C72530
:100318008A11162A162A831203133A08CE00CF012F
:100328004F08003A03199929162A4E08313A031939
:10033800C428033A0319E428013A03190629073A9D
:1003480003192829013A03194A29033A03196C2980
:10035800162A162AF8295308CE004E08A0000030A5
:100368008A1147258A1183120313EB01162A5308B1
:10037800CE004E08A00001308A1147258A11831249
:100388000313EA01162A5308CE004E08A0000230D3
:100398008A1147258A1183120313E901162A530883
:1003A800CE004E08A00003308A1147258A11831217
:1003B8000313E801162A5308CE004E08A0000430A3
:1003C8008A1147258A1183120313E701162A530855
:1003D800CE004E08A00005308A1147258A118312E5
:1003E8000313E601162A162A3A08CE00CF014F0851
:1003F800003A0319002A162A4E08313A0319AF2980
:10040800033A0319BB29013A0319C729073A031903
:10041800D329013A0319DF29033A0319EB29162ACC
:10042800162A162A0800831203136B03031D1D2ABC
:100438001E2A4C2A6C08A400A50159082506031D8C
:10044800272A58082406031D2A2A2B2A4C2A6D0815
:10045800A400A5015B082506031D342A5A082406B2
:10046800031D372A382A4C2A6E08A400A5015D0806
:100478002506031D412A5C082406031D442A452A33
:100488004C2AEB01A00100308A1147258A114C2A19
:10049800831203136A03031D522A532A8D2A8316D3
:1004A80003136B0883120313A400A501590825063A
:1004B800031D602A58082406031D632A642A8D2A0E
:1004C800831603136C0883120313A400A5015B08A9
:1004D8002506031D712A5A082406031D742A752A45
:1004E8008D2A831603136D0883120313A400A50134
:1004F8005D082506031D822A5C082406031D852A3B
:10050800862A8D2AEA01A00101308A1147258A111D
:100518008D2A831203136903031D932A942ACE2A72
:1005280083160313680883120313A400A50159084E
:100538002506031DA12A58082406031DA42AA52A56
:10054800CE2A83160313690883120313A400A50196
:100558005B082506031DB22A5A082406031DB52A7E
:10056800B62ACE2A831603136A0883120313A4003B
:10057800A5015D082506031DC32A5C082406031D82
:10058800C62AC72ACE2AE901A00102308A114725C6
:100598008A11CE2A831203136803031DD42AD52A8D
:1005A8000F2B83160313650883120313A400A501F8
:1005B80059082506031DE22A58082406031DE52AC2
:1005C800E62A0F2B83160313660883120313A4006D
:1005D800A5015B082506031DF32A5A082406031DF6
:1005E800F62AF72A0F2B83160313670883120313BF
:1005F800A400A5015D082506031D042B5C0824063C
:10060800031D072B082B0F2BE801A00103308A11CB
:1006180047258A110F2B831203136703031D152B1C
:10062800162B502B83160313620883120313A4009E
:10063800A50159082506031D232B58082406031D68
:10064800262B272B502B83160313630883120313BF
:10065800A400A5015B082506031D342B5A082406AF
:10066800031D372B382B502B831603136408831272
:100678000313A400A5015D082506031D452B5C088E
:100688002406031D482B492B502BE701A0010430F9
:100698008A1147258A11502B831203136603031D01
:1006A800562B572B912B831603135F0883120313C2
:1006B800A400A50159082506031D642B5808240623
:1006C800031D672B682B912B831603136008831275
:1006D8000313A400A5015B082506031D752B5A0802
:1006E8002406031D782B792B912B8316031361089D
:1006F80083120313A400A5015D082506031D862B9C
:100708005C082406031D892B8A2B912BE601A00186
:1007180005308A1147258A11912B0800F300132C04
:100728007003031D982B992B9D2B8312031305141B
:10073800272C7008031DA12BA22B272C831203132F
:100748000510272C272C272C272C7003031DAD2BD5
:10075800AE2BB22B831203138514272C7008031DAC
:10076800B62BB72B272C831203138510272C272C85
:10077800272C272C7003031DC22BC32BC72B8312D6
:1007880003130515272C7008031DCB2BCC2B272C06
:10079800831203130511272C272C272C272C7003D1
:1007A800031DD72BD82BDC2B831203130714272CFC
:1007B8007008031DE02BE12B272C8312031307106D
:1007C800272C272C272C272C7003031DEC2BED2B13
:1007D800F12B831203138714272C7008031DF52BA4
:1007E800F62B272C831203138710272C272C272C52
:1007F800272C7003031D012C022C062C83120313D3
:100808000715272C7008031D0A2C0B2C272C831284
:1008180003130711272C272C272C272C272C730888
:10082800F100F2017208003A03191B2C272C7108F9
:100838008400063004020318272C08308A000310AD
:10084800040D183E820008008A158A278A11F200D2
:100858007208F4003A307406031D332C342C412CF2
:100868007408F200720883160313C8000230F200FD
:10087800720883120313E200BB2C023083120313A5
:100888006202031C482C492CBB2CA02CA02C7408F9
:10089800F200720883160313C9000330F2007208CD
:1008A80083120313E200BB2C7408D03EF2007208D6
:1008B80083160313CA000430F2007208831203136C
:1008C800E200E101BB2C7408F2006108CB3E840011
:1008D8007208831380000130F2007208E107831662
:1008E80003134A08831203136102031C7C2C7D2C1A
:1008F800BB2C0530F2007208E200BB2CBB2C74083C
:10090800F200720883160313DB000630F200720847
:1009180083120313E200BB2C7408F20072088316DA
:100928000313DC0083120313E201E20A0130DE0044
:100938000030DF00BB2CBB2C6208F200F301730807
:10094800003A0319A82CBB2C7208023A03194B2C45
:10095800013A0319582C073A0319672C013A03196D
:10096800832C033A0319902CBB2CBB2CBB2C0800FE
:100978008A158A278A11F4007408F6003E30760634
:10098800031DC72CC82C462D302D302D8312031380
:100998006408013EF4007408E40085168316031306
:1009A80085164D308A15CA278A11462D83120313DE
:1009B8006408013EF4007408E40031308A15CA273F
:1009C8008A1101308A15CA278A1132308A15CA2736
:1009D8008A1100308A15CA278A1133308A15CA2726
:1009E8008A1100308A15CA278A1134308A15CA2715
:1009F8008A1100308A15CA278A11FF308A15CA273A
:100A08008A11462D83120313E40158308A15CA2728
:100A18008A11F00100308A1192238A11F001013005
:100A28008A1192238A11F00102308A1192238A11C5
:100A3800F00103308A1192238A11F00104308A11DF
:100A480092238A11F00105308A1192238A118312A8
:100A58000313E5018B15462D831203136408F40074
:100A6800F5017508003A03193A2D462D7408003A25
:100A78000319CA2C013A0319DA2C033A0319062D73
:100A8800462D462D080083120313A300B22D200320
:100A9800031D4F2D502D522D0514C62D2008031D62
:100AA800562D572DC62D0510C62DC62DC62DC62D63
:100AB8002003031D602D612D632D8514C62D20088C
:100AC800031D672D682DC62D8510C62DC62DC62D74
:100AD800C62D2003031D712D722D742D0515C62DED
:100AE8002008031D782D792DC62D0511C62DC62D7C
:100AF800C62DC62D2003031D822D832D852D071499
:100B0800C62D2008031D892D8A2DC62D0710C62D38
:100B1800C62DC62DC62D2003031D932D942D962D6D
:100B28008714C62D2008031D9A2D9B2DC62D8710CE
:100B3800C62DC62DC62DC62D2003031DA42DA52DFB
:100B4800A72D0715C62D2008031DAB2DAC2DC62DCE
:100B58000711C62DC62DC62DC62DC62D2308A100EA
:100B6800A2012208003A0319BA2DC62D21088400D3
:100B7800063004020318C62D08308A000310040D3D
:100B88000C3E8200080083120313A50022085C07AC
:100B9800A3005D0803185D0AA400003024020A308F
:100BA80003192302031CD92DDA2DEA2D5C0822072C
:100BB800F63EA3002508023E840023088313800024
:100BC8002108013EA3002308A100F42D5C08220798
:100BD800A3002508023E8400230883138000F42D17
:100BE80021085A07A3005B0803185B0AA400003019
:100BF80024020A3003192302031C032E042E122E8A
:100C08005A082107F63EA300250A8400230880001D
:100C18002008013EA3002308A0001A2E5A08210725
:100C2800A300250A8400230880001A2E20085807EC
:100C3800A30059080318590AA400003024020A30F6
:100C480003192302031C292E2A2E332E58082007A5
:100C5800F63EA30025088400230880003B2E580890
:100C68002007A30025088400230880003B2E0800E5
:100C78008A15B6278A118A159E278A118A11CB27C9
:100C88008A118A15AA278A118A11F0278A118A15CA
:100C980093278A1158308A15E4278A11831203137F
:100CA800E501562E831203136B0303195C2E5D2E88
:100CB800772E6A030319612E622E772E69030319B2
:100CC800662E672E772E680303196B2E6C2E772EEF
:100CD80067030319702E712E772E6603031D752E78
:100CE800762E7B2E772E8A1117228A117B2E83125D
:100CF80003135E035F04031D822E832E562EDE012E
:100D0800DF0139308400C830D4000408D50015301C
:100D1800D6005408840083130008D700D40A550865
:100D2800840057088000D50AD60B8D2E8A11202002
:100D38008A11562E562E562E8A110D288312031309
:100D48008C1CA72EA82EAC2E8A11A0278A11AC2E97
:100D5800831203138C1EB12EB22ECF2EBD2EBD2EA4
:100D68008A1128248A11CF2E8A11BC248A11CF2EE9
:100D7800CF2E831203136508F700F8017808003AAC
:100D88000319C72ECF2E7708003A0319B42E013A5B
:100D98000319B82ECF2E0B1CD22ED32EE42E8B1176
:100DA800831203130508F7007708FC000B10E50110
:100DB800E50A831603138512831203138512E42EA2
:100DC800831203130C1CE92EEA2EEF2E0C108A1145
:100DD80069278A11EF2E7B088A007A088400790E29
:100DE8008300FE0E7E0E09008312031322088A1563
:100DF800E4278A118312031323088A15E4278A112A
:100E0800831203132408303E8A15E4278A118312BB
:100E18000313B8011F2F3808033E223E84008313B2
:100E280000088A15E4278A11013083120313B700DA
:100E38003708B8071F2F24083802031C242F252F32
:100E48000F2F262F35088A15E4278A1183120313DA
:100E580036088A15E4278A11080083120313A200B2
:100E6800522F05080139682F682F050C0139682FA2
:100E7800682F050CA000200C0139682F682F07087F
:100E88000139682F682F070C0139682F682F070C64
:100E9800A000200C0139682F682F662F2208A000B7
:100EA800A1012108003A03195A2F662F200884004F
:100EB800063004020318662F08308A000310040D58
:100EC800003E8200FF30682F0800A0308312031311
:100ED8008F008A308E000130DC070318DD0A0030ED
:100EE800DD070A305C065D04031D7B2F7C2F9F2FD6
:100EF800DC01DD010130DA070318DB0A0030DB070B
:100F08000A305A065B04031D8A2F8B2F9F2FDA01A4
:100F1800DB010130D8070318D90A0030D9070A3095
:100F280058065904031D992F9A2F9F2FD801D901CC
:100F38009F2F9F2F9F2F08007D088312031363069E
:100F48000319A72FA82FC02F6308A03E840083137E
:100F580000088A157C278A11273083120313630639
:100F6800031DB72FB82FBA2FE301C02F0130F100AE
:100F78007108E307C02FC02F7D086306031DC52F26
:100F8800C62FCA2F831603138C10CA2F0800831686
:100F9800031305108312031305108316031385101A
:100FA8008312031385108316031305118312031389
:100FB80005118316031307108312031307108316F2
:100FC8000313871083120313871083160313071163
:100FD80083120313071108008312031317138316D0
:100FE80003138C160B178B17831203139401171610
:020FF8000800EF
:101000008A11352F8A11392F8A113D2F8A11432FCA
:101010008A11472F8A114B2F8A114B2D8A115C2D73
:101020008A116D2D8A117E2D8A118F2D8A11A02D86
:101030008A11942B8A11A92B8A11BE2B8A11D32BCA
:081040008A11E82B8A11FD2B37
:101EF800F000700883120313950008006400800145
:101F0800840A0406031900340406832F831203137A
:101F18001408F0007008F1007108922F080083126D
:101F280003130C10DC01DD01A0308F008A308E0015
:101F3800101408003030831203139004901190108D
:101F48008B170B17831603130C1408008312031343
:101F580016129717161316159115673093009501E9
:101F68009616080083160313051685160716871696
:101F780007308312031399048316031391018B15F9
:101F880016160B100F178F160F160800F1007108A0
:101F9800F0007D08A03E840070088313800027307D
:101FA8007D06031DD82FD92FDB2FFD01E02F01302F
:101FB800F0007008FD07E02F831603138C14080047
:101FC80083120313A1002108A0007D08A03E84000D
:101FD80020088313800027307D06031DF42FF52F7A
:101FE800F72FFD01FC2F0130A0002008FD07FC2F72
:081FF800831603138C1408008A
:02400E00D4FFDD
:00000001FF
